:020000040800F2
:1000000078060020890100088D0100088F01000892
:10001000910100089301000895010008000000000C
:100020000000000000000000000000009701000830
:1000300099010008000000009B0100089D010008D4
:100040009F0100089F0100089F0100089F01000810
:100050009F0100089F0100089F0100089F01000800
:100060009F0100089F0100089F0100089F010008F0
:100070009F0100089F0100089F0100089F010008E0
:100080009F0100089F0100089F0100089F010008D0
:100090009F0100089F0100089F0100089F010008C0
:1000A0009F0100089F0100089F0100089F010008B0
:1000B0009F0100089F0100089F0100089F010008A0
:1000C0009F0100089F0100089F0100089F01000890
:1000D0009F0100089F0100089F0100089F01000880
:1000E0003D0200089F0100089F01000800F002F88F
:1000F00000F03AF80AA090E8000C82448344AAF188
:100100000107DA4501D100F02FF8AFF2090EBAE885
:100110000F0013F0010F18BFFB1A43F0010318473B
:1001200084040000A4040000103A24BF78C878C1F9
:10013000FAD8520724BF30C830C144BF04680C60ED
:10014000704700000023002400250026103A28BF35
:1001500078C1FBD8520728BF30C148BF0B60704739
:100160001FB51FBD10B510BD00F02DF81146FFF7EB
:10017000F7FF00F033F900F04BF803B4FFF7F2FF9C
:1001800003BC00F053F8000008480047FEE7FEE714
:10019000FEE7FEE7FEE7FEE7FEE7FEE7FEE7FEE737
:1001A00003480449044A054B70470000ED0000086D
:1001B00078000020780600207802002078020020D5
:1001C000704770477047754600F02CF8AE46050042
:1001D0006946534620F00700854618B020B5FFF762
:1001E000DFFFBDE820404FF000064FF000074FF062
:1001F00000084FF0000B21F00701AC46ACE8C00945
:10020000ACE8C009ACE8C009ACE8C0098D4670474D
:1002100010B50446AFF300802046BDE81040FFF75C
:10022000ACBF0000004870471400002001491820AE
:10023000ABBEFEE7260002007047000000B5124882
:10024000006840F400501049086010480068401CE5
:100250000E4908600846006801280AD1002000F015
:100260001DF800200A49086040F6B24009490860BC
:1002700008E006480068022804D10020064908600A
:100280000249086000BD0000140401400400002081
:100290000C00002010000020000000202A490978EE
:1002A00001F0010010B10121284A116026490978A6
:1002B00001F0020028B12549096841F00201234AF2
:1002C00011602149097801F0100028B11F4909681F
:1002D00041F004011D4A11601B49097801F04000FA
:1002E00028B11A49096841F00801184A11601649F5
:1002F000097801F0800028B11449096841F0100123
:10030000124A11601049098801F4807028B10F4920
:10031000096841F020010D4A11600B49098801F478
:10032000007028B10949096841F04001074A11608D
:100330000549098801F4806028B10449096841F041
:100340008001024A11607047080801400000002047
:10035000002100E0491C8142FCD370470F488069AE
:1003600040F001000D49886120210D4841610D4890
:10037000006840F400500B490860081D006840F414
:100380000050091D0860081D006840F40050091D58
:10039000086088150449086070470000001002409A
:1003A000000001400004014004E100E010B50446F3
:1003B0000B460948006940F0FF00074908611846EC
:1003C000FFF7C6FF0448006940F47F000249086156
:1003D0002046FFF7BDFF10BD001001406A4880694C
:1003E00040F01000684988616848006840F00300E8
:1003F000664908600846006840F03000086008461A
:10040000006840F4407008600846006840F44050BE
:1004100008600846006840F44030086008460068FC
:1004200040F4401008600846006840F040700860E2
:100430000846006840F0405008600846006820F018
:100440000C0008600846006820F0C00008600846FC
:10045000006820F4406008600846006820F44040CE
:1004600008600846006820F44020086008460068DC
:1004700020F4400008600846006820F040600860F2
:100480000846006820F0404008603F48806940F01E
:1004900004003D4988613E480068001D3C490860F1
:1004A00008460068403008600846006800F5802073
:1004B00008600846006800F180600860084600682F
:1004C00000F180400860081D0068001D091D0860DB
:1004D00008460068403008600846006800F5806003
:1004E0000860FFF73BFF4EE02A48006818BB2A4827
:1004F000006840F6B831884214D22748006827497E
:1005000009680844244908602548006823490968A7
:10051000401A234908602048016821480068FFF715
:1005200045FF08E01C48006840F6B831884202D315
:1005300001201849086017480068012823D118488D
:10054000006840F6B831884214D213480068134955
:100550000968401A10490860114800680F49096885
:1005600008440F4908600C4801680D480068FFF70F
:100570001DFF08E00A48006840F6B831884202D3FF
:10058000002004490860AFE700100240001001405D
:1005900000080140080000200C000020000000209E
:1005A00010000020C4050008000000201400000016
:1005B00028010008D8050008140000206406000087
:1005C00044010008000000000000000000000000DE
:0805D00000000000B20C000065
:04000005080000ED02
:00000001FF
